:020000040800F2
:1000000000400220912F0108E12F0108E12F010893
:1000100000000000000000000000000000000000E0
:10002000000000000000000000000000E12F0108B7
:100030000000000000000000E12F0108E7130108A4
:10004000E12F0108E12F0108E12F0108E12F01084C
:10005000E12F01083115010841150108511501086A
:10006000013F0108E12F0108E12F0108E12F0108FC
:10007000E12F0108FD020108150301081D03010815
:1000800035030108590301087103010889030108B8
:10009000A1030108B9030108D1030108A17D0008EB
:1000A000B97D0008E12F0108E12F0108D5220108E0
:0C00B000ED22010811230108E12F0108D6
:1000C0000023C25C0133002AFBD1581E7047000098
:1000D00002B4714649084900095649008E4402BCE1
:1000E0007047C04602B4714649084900095C49009E
:1000F0008E4402BC7047C04603B4714649084000B4
:100100004900095E49008E4403BC704703B4714640
:10011000490840004900095A49008E4403BC704711
:10012000002243088B4274D303098B425FD3030A36
:100130008B4244D3030B8B4228D3030C8B420DD349
:10014000FF22090212BA030C8B4202D312120902D7
:1001500065D0030B8B4219D300E0090AC30B8B4215
:1001600001D3CB03C01A5241830B8B4201D38B03C3
:10017000C01A5241430B8B4201D34B03C01A524168
:10018000030B8B4201D30B03C01A5241C30A8B42AB
:1001900001D3CB02C01A5241830A8B4201D38B0296
:1001A000C01A5241430A8B4201D34B02C01A52413A
:1001B000030A8B4201D30B02C01A5241CDD2C309AC
:1001C0008B4201D3CB01C01A524183098B4201D328
:1001D0008B01C01A524143098B4201D34B01C01A13
:1001E000524103098B4201D30B01C01A5241C3088B
:1001F0008B4201D3CB00C01A524183088B4201D3FA
:100200008B00C01A524143088B4201D34B00C01AE5
:100210005241411A00D20146524110467047FFE751
:1002200001B5002000F0F0F802BDC0460029F7D06B
:1002300076E7704703460B437FD4002243088B4286
:1002400074D303098B425FD3030A8B4244D3030B5D
:100250008B4228D3030C8B420DD3FF22090212BA22
:10026000030C8B4202D31212090265D0030B8B429E
:1002700019D300E0090AC30B8B4201D3CB03C01A88
:100280005241830B8B4201D38B03C01A5241430B63
:100290008B4201D34B03C01A5241030B8B4201D353
:1002A0000B03C01A5241C30A8B4201D3CB02C01ABE
:1002B0005241830A8B4201D38B02C01A5241430A36
:1002C0008B4201D34B02C01A5241030A8B4201D325
:1002D0000B02C01A5241CDD2C3098B4201D3CB01CC
:1002E000C01A524183098B4201D38B01C01A52417B
:1002F00043098B4201D34B01C01A524103098B427F
:1003000001D30B01C01A5241C3088B4201D3CB0069
:10031000C01A524183088B4201D38B00C01A52414C
:1003200043088B4201D34B00C01A5241411A00D2FC
:1003300001465241104670475DE0CA0F00D0494265
:10034000031000D34042534000229C4603098B42D5
:100350002DD3030A8B4212D3FC22890112BA030A5D
:100360008B420CD3890192118B4208D389019211DF
:100370008B4204D389013AD0921100E08909C30964
:100380008B4201D3CB01C01A524183098B4201D366
:100390008B01C01A524143098B4201D34B01C01A51
:1003A000524103098B4201D30B01C01A5241C308C9
:1003B0008B4201D3CB00C01A524183088B4201D338
:1003C0008B00C01A5241D9D243088B4201D34B0053
:1003D000C01A5241411A00D20146634652415B1095
:1003E000104601D34042002B00D549427047634676
:1003F0005B1000D3404201B5002000F005F802BDBB
:100400000029F8D016E770477047C04684461000B0
:1004100062468C461900634600E0C0461FB516F0E0
:10042000FFFC002801D40021C8421FBD10B516F002
:100430004FFC4042013010BD10B516F0F1FC002811
:1004400001DB002010BD012010BDC04610B516F024
:10045000E7FC002801DD002010BD012010BDC046D2
:1004600010B516F077FC002801DC002010BD01203B
:1004700010BDC04610B516F06DFC002801DA002052
:1004800010BD012010BDC046844608006146FFE74C
:100490001FB515F00DFA002801D40021C8421FBD78
:1004A00010B515F099F94042013010BD10B515F0A6
:1004B000FFF9002801DB002010BD012010BDC0465F
:1004C00010B515F0F5F9002801DD002010BD012060
:1004D00010BDC04610B515F0A5F9002801DC0020BC
:1004E00010BD012010BDC04610B515F09BF90028C5
:1004F00001DA002010BD012010BDC046002B11D133
:10050000002A0FD1002900D1002802D00021C943C0
:10051000080007B4024802A14018029003BDC0467B
:10052000E9FEFFFF03B4684601B5029814F0D2FD5E
:10053000019B9E4602B00CBC7047C046010034319E
:1005400038C9043B9C461D60A646010020313CC9C9
:1005500090469946A246AB4601000831FCC9416865
:100560000068E54600BDC0467047C0467047C046BB
:100570007047C0467047C0467047C0467047C04687
:100580007047C0467047C0467047C0467047C04677
:1005900001B401A801B585B0FFB408A841464A4698
:1005A00053465C4665463EC001A83EC80F98009081
:1005B00000230CB401A917F073FD109B12B018476B
:1005C00001B401A801B585B0FFB408A841464A4668
:1005D00053465C4665463EC001A83EC80F98009051
:1005E00000230CB401A917F08FFD109B12B018471F
:1005F00001B401A801B585B0FFB408A841464A4638
:1006000053465C4665463EC001A83EC80F98009020
:1006100000230CB401A917F09BFD109B12B01847E2
:1006200001B401A801B585B0FFB408A841464A4607
:1006300053465C4665463EC001A83EC80F980090F0
:1006400000230CB401AB17F055FD109B12B01847F6
:1006500001B401A801B585B0FFB408A841464A46D7
:1006600053465C4665463EC001A83EC80F980090C0
:1006700000230CB401AA17F0C5FD109B12B0184757
:100680001C2101231B04984201D3000C10391B0AC2
:10069000984201D3000A08391B09984201D3000986
:1006A000043902A2105C40187047C04604030202DD
:1006B00001010101000000000000000010B5002948
:1006C00003D1FFF7DDFF203002E00800FFF7D8FF7D
:1006D00010BDC04610B5064C2378002B07D1054B42
:1006E000002B02D0044800E000BF0123237010BD9E
:1006F000C002002000000000188B0108044B10B558
:10070000002B03D00349044800E000BF10BDC046E1
:1007100000000000C4020020188B01087047000090
:1007200010B5044802F018FC17F086FA024B186066
:10073000596010BD7408002058040020F8B504006A
:10074000007813F03DFD0500A06817F075FA06006B
:1007500028000F0015F048FC011C214814F024FF6C
:1007600017F06AFA00221F4B16F02AFE02000B0057
:100770003000390015F0B6FF17F0A6FA14F0E2FACF
:10078000051C207917F002FA174A184B15F06EFC79
:1007900002000B000020134915F0A4FF060060883A
:1007A0000F0015F0D3FB011C281C14F0FDFE17F000
:1007B00043FA02000B003000390015F057FC17F027
:1007C00083FA17F039FA02000B000020054915F0F2
:1007D00089FF054A054B16F0F3FD17F075FAF8BDD1
:1007E00000C07F440000F03F666666666612714096
:1007F00010B50A2013F0CAFC0121C02013F07CFDC3
:1008000010BD00000E4B10B51B680E4C002B11D113
:100810000D4802F0A1FB17F00FFA0C4A0C4B16F032
:1008200063FB14F039FC0100C02013F0DFFC01234E
:10083000237010BD0121C02013F0C0FDF7E7C046B2
:10084000A0040020A4040020D0060020666666668E
:1008500066660440194B70B51C78002C25D013F047
:1008600027FE174C236898421ED91648FFF766FFEB
:1008700017F0E2F9144B18605960144809F09AFA1D
:10088000134D2868696814F007FC0100C22013F0BA
:10089000ADFC2868696814F0FFFB01001D2013F00F
:1008A000A5FC23686433236070BD2100C22013F0CF
:1008B0009DFC21001D2013F099FCF5E72D0500207B
:1008C0002805002034050020E0020020B0040020AC
:1008D000E8020020F0B52E4C85B02E49200012F021
:1008E00033F82D4E0225300001F0F8F917F0A4F985
:1008F000009502000B00200012F054F9274F200051
:10090000390012F021F82649200012F01DF83000BD
:1009100001F0E6F917F090F9009502000B002000B5
:1009200012F040F93900200012F00EF81D492000A5
:1009300012F00AF8300001F0D5F917F07DF90095B2
:1009400002000B00200012F034F9174802F004FBFB
:10095000041C164802F000FB061C154802F0FCFAC5
:10096000071C201C17F068F90400381C0D0017F054
:1009700063F902900391301C17F05EF92200009099
:1009800001912B000B4809F033FB05B0F0BDC046C8
:10099000381C0020548B010840050020618B0108A1
:1009A000598B01085E8B0108200700200C070020EE
:1009B000F8060020B004002010B5FFF78BFF10BD33
:1009C00010B50B48FFF7BAFE17F036F9094B18605F
:1009D0005960094802F0C0FA17F02EF9074B186069
:1009E0005960FFF777FF0121054809F037FB10BD7B
:1009F00034050020E0020020740800205804002084
:100A0000B004002010B50B4C0B49200011F0B8FFCA
:100A100020000A4911F0B4FF2000094911F0B0FF8D
:100A20002000084911F0ACFF2000074911F0A8FF91
:100A300010BDC046381C0020638B0108DAAC0108E9
:100A4000688B0108818B0108938B010813B59621EF
:100A50000C4C8901200012F0A3F90B49200011F081
:100A60008FFF200011F07AFF0849200011F06CFF81
:100A70000223002200932000054B12F09AF8FFF7A2
:100A8000C1FF13BD381C0020A68B0108B18B0108E3
:100A90000000F03F70B5144B144CD8890023013886
:100AA000052805D8FFF71EFB031517191B1D022388
:100AB0000F4D10492800236011F046FF0A2228003C
:100AC000216811F0A7FF21680B4889B209F0FAF8F4
:100AD00070BD0423ECE70823EAE71023E8E72023AE
:100AE000E6E74023E4E7C0467C070020A804002096
:100AF000381C0020C58B010860040020F8B52D4B80
:100B00000024D9892C4D4B1E99412800C9B208F008
:100B10004BFEFFF7BFFF294B1B78A34237D0284B72
:100B200028481F68284EA74240DD02F015FA041C31
:100B3000380015F00BFA211C14F0FEFE041C3000E6
:100B400002F00AFA011C201C14F0F6FE061C1F48D5
:100B500002F002FA071C1E4802F0FEF9391C041CC0
:100B6000301C14F0E9FE17F067F80600201C0F0097
:100B700017F062F8174A184B16F0B6F902000B008E
:100B80003000390015F0AEFD16F0CAFF0400134E18
:100B90001349300011F0F4FE0A222100300011F058
:100BA00043FF2800210009F00CF8F8BD02F0D4F949
:100BB000C4E7C04634070020600400202D05002053
:100BC000A8040020E4060020B4070020A0070020AD
:100BD0002408002026E4839ECD2A0940381C0020EA
:100BE000D28B0108012310B5034A11784B401370D2
:100BF000FFF784FF10BDC0462D05002010B5FFF79C
:100C00007DFF10BD10B5054802F0A6F914F02CFACE
:100C100081B2034808F0E6FF10BDC0468C070020F3
:100C20006004002010B5FFF7EDFF10BD70B5012185
:100C3000272013F061FBE121012506221848490213
:100C400011F012FE174B27201A68AA431A6080225F
:100C5000596812020A435A60082299680A439A6046
:100C60001A6800212A431A6013F0A8FB0E4C2000DA
:100C700008F00EFE2000052108F05DFD290020008F
:100C800008F070FDFFF706FFFFF7BCFF2000002112
:100C900008F079FD2900200008F0D7FD70BDC0469E
:100CA000F002002000440040600400200E480F4B7A
:100CB0000200196D083210B5D1670200DB6C883272
:100CC0000021136006F0C8FC00F0BEFC00220849B9
:100CD000084802F0BDFFFFF7B9FEFFF7A7FFFFF7D7
:100CE00087FDFFF76DFE10BD400B0020E0AB010853
:100CF000DEFA0000A0090020274B284A70B51A60D0
:100D000019225A60264A88B09A60264800F0E0FE10
:100D1000254802F021F9041C244802F01DF90025A1
:100D2000061C234802F018F90795069516F084FF73
:100D300004900591301C16F07FFF02900391201C57
:100D400016F07AFF1B4B009001911B4A1B491C486F
:100D500009F0BAF92E2387221A4E00930F21300092
:100D6000520011F05BFC184C2B00310000222000D7
:100D700008F0BCFD154B0F212360230039339A780E
:100D80001D708A439A705D7023003D343C331D70A2
:100D90002570657008B070BD34050020C3006E0F6B
:100DA0001283403D40050020200700200C07002052
:100DB000F806002058040020E8020020E00200208D
:100DC000B0040020F002002060040020088C01081C
:100DD000114B70B5186C002802D0104901F022FEAA
:100DE0000F4803F08FFA041E14D0038D9B07DD0F0C
:100DF000002B0FDB2B002A00042101F0BBFA2B0093
:100E0000200008492A0001F0BDF9236820009B68F2
:100E10000549984770BDC046A0090020DEFA0000D1
:100E2000880800203C8C0108498C01080022F0B59C
:100E3000724B87B01A70724B013272481A7002F00E
:100E40008BF8714C011C200000F04AFE6F4B200013
:100E5000196800F047FE6E4A0021200000F049FEAC
:100E60000221200000F048FE13F022FB01002000C8
:100E700000F044FE200000F037FF664D00284ED100
:100E800013F016FB644F38606448FFF757FC061CEC
:100E900016F0D2FE624B3A6818605960311C20008F
:100EA00000F044FE039014F0DFF806000100C220B9
:100EB00013F09CF9310002261D2013F097F95949CF
:100EC000280011F041FD564B28001A685B68009617
:100ED00011F068FE5449280011F036FD039816F011
:100EE000ABFE009602000B00280011F062FE13F02A
:100EF000DFFA3B68C01A454B1B6803939842B9D28E
:100F00004A4B9A6804925A68049A05929B68049323
:100F1000059A049B059B049B049B0593E7E74448C3
:100F200003F0F0F9061E14D0038D9B07DF0F002B92
:100F30000FDB3B003A00042101F01CFA3B003000BB
:100F40003C493A0001F01EF9336830009B683A4989
:100F500098470021C22013F049F93849280011F0C0
:100F6000F3FC200000F0BAFE16F066FE0226020036
:100F70000B002800009611F015FE314F28003900B3
:100F800011F0E2FC2F49280011F0DEFC200000F0F7
:100F9000A7FE16F051FE009602000B00280011F08B
:100FA00001FE3900280011F0CFFC2749280011F07C
:100FB000CBFC200000F096FE16F03EFE00960200EC
:100FC0000B00280011F0F5FD200000F087FE011C49
:100FD0001E4802F0B1F8200000F082FE011C1C48FF
:100FE00002F0AAF8200000F07DFE011C194802F072
:100FF000A3F8FFF76FFC07B0F0BDC0462D05002039
:101000002C0500207408002040050020000000206E
:1010100000007F43381C0020AC0400203405002071
:10102000E0020020DF8B0108ED8B010810E000E0FA
:10103000880800205A8C0108F78B0108548B01089E
:10104000618B0108598B01085E8B01082007002085
:101050000C070020F806002010B5FFF7E7FE10BDD2
:1010600070B50F4D280011F023FE002810D0280085
:1010700011F026FEC4B2280011F088FE312C03D1F5
:101080000122084B1A7003E0302C02D06D2C03D0E3
:1010900070BD0022034BF5E7FFF7B4FCF8E7C0464C
:1010A000381C00202D05002010B513F001FA0A4C61
:1010B000236898420ED9FFF7D3FFFA2223689200E3
:1010C0009B1806482360FFF739FB0022011C0448E7
:1010D00001F0DFFF10BDC0463005002034050020C0
:1010E0006C06002010B5054805F0A6FEFFF7DCFFF2
:1010F000FFF788FBFFF7AEFB10BDC046E40A0020F7
:1011000000207047704700207047F8B505000C00BC
:1011100000268F18BC4207D02B68217828001B6856
:10112000984701343618F5E73000F8BD70470000E5
:1011300013B514000122022C13D0032C08D09442C2
:1011400008D1049A1800D2B2074903F0AFF8220080
:10115000100016BD049A0092220002F0EDF9020080
:10116000F6E75242F4E7C046948E010813B5140026
:101170000122022C13D0032C08D0944208D1049AE7
:101180001800D2B2074903F091F82200100016BDF2
:10119000049A0092220002F0CFF90200F6E75242D0
:1011A000F4E7C0463D8F010813B514000122022C5C
:1011B00013D0032C08D0944208D1049A1800D2B25C
:1011C000074903F073F82200100016BD049A00923C
:1011D000220002F0B1F90200F6E75242F4E7C046FD
:1011E0006C8E010813B514000122022C13D0032CBD
:1011F00008D0944208D1049A1800D2B2074903F0EB
:1012000055F82200100016BD049A0092220002F048
:1012100093F90200F6E75242F4E7C0467C8D0108DC
:1012200010B5040008210FF03DF9200010BD0000AA
:10123000F8B5070003000837B4331B680400380012
:101240009847124A0300904214D825002600BA3568
:10125000B83638002A88318807F005FB903403003F
:101260002078032806D8FEF73DFF02070B0E3088D2
:101270001B1833800120F8BD28881B182B80F9E744
:101280003088C31AF5E72888C31AF7E7FDFF000086
:1012900037B514001225022A0AD0032A0AD0069A6A
:1012A000012C0FD118000A49D2B202F0FFFF25002D
:1012B00028003EBD01250028FAD001F064FDFFF7AB
:1012C0002DFAF5E70092220002F064F90500EFE73D
:1012D0007C8F010837B5150006AA12780400009229
:1012E0000A00012101F0E7FC01232000E5812374BD
:1012F0003EBD7FB504000D00160002F08BF80123FF
:10130000019300230200009398212B0020000296F5
:1013100002F088F8200004B070BD00007FB5160010
:101320008A8A029301230193002304000D00009395
:101330009B21044B02F076F820006661A56104B0A1
:1013400070BDC04639350008064B10B50360064B2A
:101350000400C3604068002802D001210FF0A2F809
:10136000200010BD78910108A891010808B4024B33
:101370009C460C3808BC60474913000810B50400AF
:10138000FFF7E2FF200030210FF08CF8200010BDA5
:1013900008B4024B9C460C3808BC60477D1300081B
:1013A00070B524300C000988050005F033FF0028D3
:1013B0000BD02369217A6568E268002B00D1130005
:1013C00045600172C260036170BD2100280005F014
:1013D000F4FEF9E710B5006808F0BAF810BDF7B5EB
:1013E0000D0016001F000024A74207DD331901A8D5
:1013F0000193FFF7EFFF28550134F5E7F7BD73B50B
:10140000CB1C01A80E000193FFF7E4FFB31C0500FD
:1014100001A80193FFF7DEFF2D060004731C0543AE
:1014200001A80193FFF7D6FF040001A80196FFF77A
:10143000D1FF24022843204376BD37B54B1C01A8B9
:101440000D000193FFF7C6FF040001A80195FFF707
:10145000C1FF2402204380B23EBD07B501A801911F
:10146000FFF7B8FF0EBD10B50400006808F0C2F821
:10147000200010BDF7B50D0016001F000024A74284
:1014800007DD2B19315D01A801930134FFF7EBFF54
:10149000F5E7F7BD37B514000D00019101A8D1B2F1
:1014A000FFF7E1FF210A6B1CC9B201A80193FFF706
:1014B000DAFF210CAB1CC9B201A801930335FFF779
:1014C000D2FF210E01A80195FFF7CDFF37BD37B53B
:1014D00014000D00019101A8D1B2FFF7C4FF01353E
:1014E000210A01A80195FFF7BEFF37BD07B501919D
:1014F00001A81100FFF7B7FF07BD0000F0B5040019
:101500000E00016F93B00B6807920CA89B68984778
:10151000216F04AB2027DF5F0B680DAD28009B68AF
:1015200098470223EA5E23006C335A8001221F8011
:101530001A6770333A4B04A883830384079B079888
:101540001A7901680BAB200004F0D2FB2700327936
:10155000316808900CAB200004F0CAFB0024314B2A
:1015600078370D93304B29000E93304B099038009B
:101570000F9410931194FFF713FF2D4B29000D9337
:10158000294B38000E932B4B0F9410931194FFF7B7
:1015900007FF079B05A8197907902020079D1A6867
:1015A00004AB9B8B2870133804900898019101308C
:1015B000C0B203900220009202901F4A38001F49D7
:1015C00003F0A9FB6B4624215B181B78079D327939
:1015D000089304AB1B8C2C70089D01923268233950
:1015E000380004940395029100921549124A03F0C1
:1015F00092FB0120079D04AB1B8C326831792C7063
:101600000D340494089C0290019138000D49009219
:101610000394094A03F07FFB03F034FC13B0F0BDE0
:1016200011110000FEFF0000080006002A930108C7
:10163000FDFF00002493010804000020FFFF0000CC
:10164000FFFF0400FFFF080030B5214B214D224A67
:101650002B6404231188214C0B4389B01380200094
:1016600007F01CFF200006F08BFE0021200007F091
:101670001CFF0A231A4C63742333FF33A38205F043
:1016800045F8012301000022164804F0E3FC022380
:101690000293143301930133210028000093124A6E
:1016A000023B02F0A3F922000123210068321370EB
:1016B00000220E48593122650A70049204A906AA34
:1016C00006900B7120001371FFF718FF09B030BDB1
:1016D00064060020A00900206C060020A40500205C
:1016E000880800209C0A0020640800202C9C010827
:1016F00010B50400054B0360054BC360303005F0A6
:10170000DAFC2000FFF720FE200010BD90920108B7
:10171000D492010808B4024B9C460C3808BC6047C0
:10172000F116000810B50400FFF7E2FF2000702159
:101730000EF0B8FE200010BD08B4024B9C460C38D9
:1017400008BC60472517000810B504000A4B036069
:101750000A4BC3600A4B8367BC3005F0ACFC200029
:101760009C3005F0A8FC20007C3005F0A4FC200093
:10177000FFF7BEFF200010BD4093010884930108CD
:101780001093010808B4024B9C460C3808BC604713
:101790004917000810B50400FFF7D6FF2000EC2120
:1017A0000EF080FE200010BD08B4024B9C460C38A1
:1017B00008BC604795170008F7B57A4B7A4A7B4D0D
:1017C0001A607B4A00245A607A4B7B4A2B602B00BC
:1017D000B4331A602B00794EB83330006C601C6053
:1017E00007F0A2FC764B30002B60764A764B7749A7
:1017F00006F0DAFDFF2330001A00190006F086FB20
:1018000029000125724E734A300000F08DFB330031
:101810001E21714A714803F019FC230000956621CE
:101820006F4A704801F047FA6F4F2300220000957D
:1018300038006E49FFF74EFD6D4E3B0022000095CB
:1018400030006C49FFF746FD6B4F330022000095D6
:1018500038006A49FFF73EFD694E3B00009566215E
:101860003000684A01F027FA674F320038006749B4
:10187000FFF73FFD664E3A0030005A4B6549FFF7CF
:101880004DFD23002200009563496448FFF722FDC7
:10189000634F624B1622009338000A23614901F01E
:1018A000E7FE3A0060496148FFF723FD33005F4AD5
:1018B0005F496048FFF732FD5F4F23000095032129
:1018C00038005E4A01F0F7F95D4EFC813B0000955F
:1018D000022130005B4A01F0EEF95B4FF4813300E6
:1018E0002200009538005949FFF7F4FC584E3B00A0
:1018F0002200009530005749FFF7ECFC564F3300AB
:101900002200009538005549FFF7E4FC544E3B0097
:101910002200009530005349FFF7DCFC524F3200A3
:1019200038005249FFF7E5FC514E3A00414B300078
:101930005049FFF7F3FC504F320038004F49FFF792
:10194000D8FC4F4E23003A0030004E49FFF7E6FC2A
:101950004D4F33002200009538004C49FFF7BAFC88
:101960004B4E3B002200300000954A49FFF7B2FC85
:10197000494F33002200380000954849FFF7AAFC80
:10198000474C3B00009565212000464A01F093F941
:10199000002366212361444A00952300434801F057
:1019A0008AF9F7BD64060020A08C01089C05002080
:1019B00098050020708C010815910008A4050020EE
:1019C000888C0108217F0008E97D000820A101081A
:1019D00058060020400B0020649001088808002071
:1019E0004C8E010814080020F8060020888F01089A
:1019F0000C070020B48F010820070020E08F0108A9
:101A000054080020C48E0108BC06002031110008D3
:101A100038080020008E0108508F0108E4070020DC
:101A2000F8070020911200086D110008A806002098
:101A3000748E0108C807002034070020EC8C0108D0
:101A40007C070020A08E01088C070020008F010871
:101A500024080020D48D0108A0070020208E010852
:101A6000B4070020A88D010894060020A9110008E1
:101A700060070020888D010880060020E51100081D
:101A800044070020108D0108D00600200C900108AA
:101A900074080020508D0108E406002038900108E9
:101AA0006C060020308D0108CC8C010864080020F1
:101AB000054B10B55869002802D001210EF0F2FC48
:101AC0000248FFF741FE10BDF807002088080020FB
:101AD00000230360436002230374083343617047AB
:101AE0000160704710B50400080014F02FFA606020
:101AF00010BD8160C260704701747047002383612C
:101B0000436303634362074B01228363064B0277FF
:101B1000C3630023C268C16202628162836443645A
:101B200003647047A5D468D3A5D46853F0B5876B18
:101B3000040085B04262381C15000E1CFEF7CAFC7A
:101B4000002800D1371CA763E76B311C381CFEF757
:101B5000ADFC002800D1371C2368E7630193237F85
:101B6000002B10D00199301CFEF7B4FC002800D1E6
:101B700084E000232377A368A5622362E36AEB1A5B
:101B80002363019BA3630199301CFEF78FFC00289F
:101B900074D001232377E368A1682362A36AE56216
:101BA000EB1A6363E068029313F0ECFF16F044F85D
:101BB0000022434B15F098F90022424B15F094F99E
:101BC00005000E00A06B391C13F0DCFF16F034F892
:101BD0003D4A3E4B15F088F90022394B15F084F947
:101BE00002000B002800310014F07CFD16F06CF8A8
:101BF000236B071C9C460298604414F0A7F9237CD1
:101C00000290002B58D0324E301C012B00D03148AE
:101C1000391C13F091FEFC21051CE0648905029833
:101C200013F08AFE6768011C281C13F0BDFC391CE8
:101C300013F082FE311C03902065281C13F07CFEFB
:101C4000029913F079FE391C13F0AEFCA769061C4B
:101C50006065012F0EDD206C291C13F007FB039932
:101C60002064606C13F002FB311C6064A06C13F004
:101C7000FDFAA064019B0137E363A761A069636972
:101C8000984216DB00232377A3680138236214F0FF
:101C90005DF9051C011C206C13F086FC291CE06416
:101CA000606C13F081FC291C2065A06C13F07CFC97
:101CB0006065206A05B0F0BDF8260748B605A7E7BD
:101CC0000000E03F00001040182D4454FB21094063
:101CD000C3F5A83ECDCC4C3E9A99193FC06C7047D5
:101CE000006D7047406D704743698269D90FD01706
:101CF0009A424841C0B27047002070478B685B6EC3
:101D0000036070470800032900D90120704770471D
:101D100070B504000D008068111E00D10F49083015
:101D200006F018FEE1889E2602394A425141A06819
:101D3000C9B2083006F094FDA068A1798657083032
:101D400006F0BDFE6B88A0689E1903002A88B83390
:101D50005E8004991A8010F0F7FD70BD5C94010854
:101D6000F0B5150004000E001F000179806885B0F1
:101D7000083006F0A4FE2B88A06803936B88728855
:101D8000318800930830039B06F077F9A068A179A9
:101D9000083006F094FEA0686C882B887288318821
:101DA00008300197009406F03BF905B0F0BDF0B59E
:101DB000140005000E000179806885B008301F000E
:101DC00006F07DFEA388A8680393E38872883188B3
:101DD00008300093039B06F050F9A868A9790830F1
:101DE00006F06DFE237A002B0FD131887288A86827
:101DF000A388E688002F02D02569002D00D1E56870
:101E000008300195009606F00BF905B0F0BD73B5EA
:101E100014000E00050081798068083006F04FFE3E
:101E2000A3B20F24A868728831880830009406F0A5
:101E30005CFA73BD70B50D000400111E059EA86804
:101E400000D10C49083006F085FDA868002E04D0AA
:101E50000300AF331B785BB233600499083006F09F
:101E600087FDAB689E331B7820805BB220006380C7
:101E700070BDC0465C94010810B504000C210EF042
:101E800011FB200010BDF7B5140007000D0081798B
:101E900080681E00083006F012FE2388B868648847
:101EA0006A88298808300094002E02D006F0E5F8F0
:101EB000F7BD06F006F9FBE77FB50C00022A09D151
:101EC0008068E4888B884A8808300988009406F086
:101ED00027FE7FBD032AFCD104228B5E0221625EB5
:101EE0000025615F0A26A55F806802950826A55F28
:101EF000083001950625645F009407F029F8E8E7AB
:101F000010B50400002908D08068083006F01CFDD8
:101F1000A068083006F009FD10BD002AFCD08068DA
:101F2000083006F049F9F7E700234360054B81606C
:101F300008330360044B1A60002A01D0034B8B6105
:101F40007047C046A890010878090020511F00087A
:101F500070B5060008001900184B1D682C1E1DD016
:101F600014380C2828D8FEF7BDF8212727071B2393
:101F70002727272727272100114E280033780124FF
:101F8000D31833702B685B6898473378102B05D9CA
:101F900000210C4804F086FF00233370200070BD40
:101FA0000536F17F2800490805F0ACF90124F5E772
:101FB000280005F06AFAF9E70024EFE77809002025
:101FC00074090020E40A0020406D7047704700004B
:101FD000014B1B68586870477C09002070B5094B9D
:101FE000040018680D00437A012B01D100F04AFC6F
:101FF000228D102113008B43002D01D00B001343C1
:10200000238570BD7C09002013B514000122022C29
:1020100013D0032C08D0944208D1049A1800D2B2ED
:10202000074902F043F92200100016BD049A0092FD
:10203000220001F0AFFA0200F6E75242F4E7C04690
:10204000F890010810B50022403001F03EFA10BDB2
:10205000064B10B5083304000360406D002802D021
:1020600001210EF01FFA200010BDC046209101088A
:1020700010B50400FFF7ECFF200088210EF012FAE3
:10208000200010BDF7B50191038D040001279B07C7
:1020900028D503681B699847134B01991B680500F5
:1020A0001E7A320012F08AFD238D1A003A40019206
:1020B0003B420AD12800FEF703F8019AB04200DC47
:1020C000321A2021281812F058FC0023AB552300A7
:1020D0002A331A78022A01D001221A70228D034B6A
:1020E00013432385F7BDC0467C09002000FFFFFF96
:1020F000074B10B5083304001422002108C012F069
:102100003CFC0023A3612385024B2000A38410BD67
:10211000009101080404000037B506230400028D75
:10212000002902D104239A43023B1343134A01219D
:102130001343238523682000DB689847230002228D
:102140002A331A70631DDB7F0021042B04D0A31DEA
:10215000D97F04394B1E9941094B186800280CD0CF
:10216000228D0125D20813002B402A4205D10734C5
:10217000E27F89B2009503F0E5FF37BD00FFFFFF66
:102180009C0A002070B5040081611500028D20209A
:1021900082432285E3611422201D02F087F8290082
:1021A0002000FFF7B9FF70BD0222038D10B59343E5
:1021B0001A000400074B0021134303850368DB6802
:1021C0009847054B2200A38400232A321370237101
:1021D00010BDC04600FFFFFF04040000821D030085
:1021E000D07F002904D10533DB7F042B00D01800F9
:1021F000704770B50400C0690D0000280BD129009C
:102200002000FFF7EBFF05002000FFF7CDFFE3699B
:10221000002B09D170BD238D9B06F0D503689B6808
:1022200098470028EBD1F5E7228D920605D51A686C
:102230002900180052689047ECE72800216A984767
:10224000E8E770B5C31D1400DA7F8A4206D00200A9
:102250002A321578022D01D001251570D977002C6E
:1022600002D0FFF7C6FF70BD05002A352B78002B82
:10227000F9D003685B6998472C70F4E7F7B50193D0
:1022800008AB0C001E78002323700500C069110004
:1022900098422BD0012A10DD03682200DF680E234C
:1022A000B847019B013324D100262078B04202D0E8
:1022B00012F098FC20703000FEBD002A0ED16B1D7C
:1022C000DB7F0E2BE8D86B1DDB7F032BE9D8134A8D
:1022D0009B002000995812F057FCE2E7AB1DDB7F12
:1022E000012A01D10E2BD7D8AB1DEDE7002AEAD089
:1022F000FAE76B1DDB7F042B05D00635EB7F042B43
:1023000001D0002ED7D02078002804D012F06AFC2B
:1023100020700134F7E70126CDE7C0460C0000200D
:10232000F7B51C00124B06001868170003689B687D
:10233000984705000020032F09D83800FDF7D2FE8A
:10234000110814022800B17CFFF753FF0120FEBDE5
:102350000023210000932800B27C013BFFF78EFF91
:10236000F4E700232370F1E701204042EFE7C04685
:102370007C09002010B5441DE177811DCA77C21D7C
:10238000D3772A300378022B01D00123037010BDCC
:1023900070B504000D00FFF707FFE369002B07D0BD
:1023A000228D920605D51A682900180052689047B8
:1023B00070BD2800216A9847FAE7002907D002007B
:1023C000436C08324B60D36F0133D367416470476D
:1023D00070B50C001500011D200012F0EFFB00236A
:1023E0006419013C237070BD70B51C00104B1500C2
:1023F000186803689B68984703000020032D09D8DC
:102400002800FDF76FFE0E08110202211800FFF7E9
:10241000BFFF012070BD21001800049AFFF7D8FF0C
:10242000F7E700232370F4E701204042F2E7C046BB
:102430007C090020F8B507000600042340375C360D
:1024400007634664821CD18F05000B43D3870300CA
:1024500000240833703505662100DC672C3000F05D
:10246000DEFC3800210000F0DAFC3000210000F032
:10247000D6FC2800210000F0D2FCF8BDF0B5040025
:1024800085B0FFF735FE234B00250833236000F0AD
:10249000C1FF01270200200098211F4B02950197E0
:1024A00000952C3000F0BEFF00F0B4FF02002000C9
:1024B00014231A4926000095403001F0D9F800F0A5
:1024C000A9FF5C3602009D213000154B0295019753
:1024D000009500F0A7FF08223388B57413433380BA
:1024E00000F098FF143602009D2130000C4B02953D
:1024F0000197009500F096FF08223388B7741343C4
:102500003380A3182000DD672285FFF793FF2000AA
:1025100005B0F0BD20910108E9230008092000085A
:1025200021230008F0B5040085B00D00FFF756FD2B
:102530001022238D93432385002D55D02E4B26004A
:1025400018685C3603689B6B98473288631D0500EA
:102550004021D87F13008B43042801D00B00134384
:102560002700338070373A88A31D4021D87F13009D
:102570008B43042801D00B0013433B8023000A2126
:102580000833DA6F2B6802321B69039175310A40F8
:1025900052000192A0220199D2010A4302A9CA80E5
:1025A0002800310003AA984712222B6801991B6961
:1025B0000392C022D2010A4302A9CA80280039002E
:1025C00003AA984721002B680C4A1B692800039234
:1025D000403103AA984721000123320008482C31DA
:1025E00001F0DBFB05B0F0BD2000FFF723FF290061
:1025F000034801F0B1FBF5E77C09002009000290D7
:10260000A0090020064B1B685A7A022A02D1002238
:102610001A657047002AFCD002229A75F9E7C04675
:102620007C090020012070477047818A03004182A5
:10263000811CC97F002907D1416A081E07D0098D76
:10264000C906C80F002902DA012028331A70704722
:102650000020012210B500290CD00B889C091442DF
:1026600006D0134207D11B09134204D10130C0B276
:102670004968F0E7080010BD10B5002001240029CA
:1026800009D0002A03D10B889B09234201D00130D5
:10269000C0B24968F3E710BD30B50800002301253A
:1026A000002809D00488A4092C4203D0934204D006
:1026B0000133DBB24068F3E7080030BD37B5838AE9
:1026C00000214382022304000C4D8375C16228005F
:1026D00001F008FB637C002B01D1043363742200FA
:1026E00000230C320093FA210233054804F024FB46
:1026F0002800044901F0A0FA37BDC046A009002017
:10270000E40A00201C00002037B50400406A0028BD
:102710001FD0038DDB061CD5254B1B68191E00D06E
:10272000D988230028331A78531E9A41D2B2FFF772
:1027300088FDFA20617C25008000FDF77BFD0023E9
:102740000C3501002A0000931A48023304F0F4FA11
:1027500037BDA51CEB7F002B04D1236820009B69AB
:102760009847E6E7022B07D1E069210003689B68E0
:1027700098470323EB77DCE7032B0CD1E069036870
:102780001D690B4B1B68191E00D0D9882300283304
:102790001A78A847CDE7012BCBD1054BE26A1B681D
:1027A000181E00D0D8882300283319789047C0E736
:1027B0009C0A0020E40A002008B4024B9C460C3816
:1027C00008BC60470927000870B50400104B1600CC
:1027D0000360481C0D000DF061FE0E4B60601A0096
:1027E0003833E3600023E3626362A361E36123841F
:1027F0008023DB0023617823A382763BA375064BFD
:10280000083220002572667222601C6070BDC046CE
:1028100048910108709101087C09002010B5012140
:102820000400094801F098FA0123E0695B426382E1
:10283000002806D00134E37F002B03D00368DB6857
:10284000984710BD8047FCE7A0090020436A10B5F7
:102850000400002B05D01B8D9B0702D5838A638261
:1028600010BD638A002B05D12000FFF7D7FF01239D
:102870005B42F4E7024A9342F2D0013BEFE7C046E5
:10288000FFFF00000300002110B504002833197079
:10289000831CC162D977034801F024FAA38A6382BA
:1028A00010BDC046A009002010B5017B0300012027
:1028B000662913D00A006A32D2B2072A06D8E83055
:1028C000D040020001200400944307D00020972943
:1028D00004D1187CFF3843425841C0B210BD0000FB
:1028E000F8B505000C00002C00D197E0237B9B2B52
:1028F00005D128006169FFF7F3FF6468F3E7200062
:1029000000F07CFA464B9842F7D0237BC82B0AD1C3
:102910002B6820009E6A00F071FA0100637C6269F6
:102920002800B047E9E7CA2B09D12B6820009E6A2E
:1029300000F064FA2200010004231332F0E7CB2BED
:1029400009D12B6820009E6A00F058FA0423010088
:1029500022001232E4E7C92BF3D0D22B11D12B681D
:1029600020001E6900F04AFA227E01002800B047CC
:102970002B6820009E6A00F041FA0130062381B2E4
:10298000E6E79A2B09D12B6820009E6900F036FA01
:102990000100227C2800B047AFE7D32B27D12B685A
:1029A00020001E6900F02AFAA27C01002800B0472E
:1029B0002B6820001E6900F021FA013081B2E27C10
:1029C0002800B0472B6820001E6900F017FA02307B
:1029D00081B2227D2800B0472B6820001E6900F0DC
:1029E0000DFA627D033081B22800B04785E7012BE4
:1029F00007D12B6820009E6900F000FAE2890100EF
:102A0000C8E7022BF5D0032B00D076E72B68200017
:102A10001E6900F0F3F9A27B0100E5E7F8BDC046AE
:102A2000FFFF000010B5040003680A009B69002145
:102A30009847034B20001968FFF752FF10BDC046AE
:102A4000A0090020F8B5050008000C0000F0D6F938
:102A5000584B984214D0267BC82E12D12B682000E8
:102A60005E6A676900F0CAF939000200637C2800D9
:102A7000B047200000F010FD02232288134323807A
:102A8000F8BDCA2E0BD12B6820005E6A00F0B6F9A3
:102A900021000200133104232800B047ECE7CB2EBD
:102AA00008D12B6820005E6A00F0A8F9210002001E
:102AB0001231F0E7C92EF4D09A2E0DD12B682000E8
:102AC0005E6900F09BF901002800B0470122010077
:102AD000200000F045FED3E7D32E27D12B6820003D
:102AE000DE6800F08BF901002800B047A0742B6865
:102AF0002000DF6800F082F9013081B22800B84779
:102B0000E0742B682000DF6800F078F9023081B2B1
:102B10002800B84720752B682000DF6800F06EF9A8
:102B2000033081B22800B8476075A5E7D22E18D1CE
:102B30002B682000DE6800F061F901002800B04732
:102B4000431E98412B68207620005F6A260000F023
:102B500055F91236013082B2062331002800B847F9
:102B60008AE7012E0DD12B6820005F6900F046F93D
:102B700001002800B84701000122200000F0A0FA5F
:102B80007EE7022E08D12B6820005E6900F036F93E
:102B900001002800B047EEE7032E00D070E72B6855
:102BA0002000DE6800F02AF901002800B04781B259
:102BB000E2E7C046FFFF000070B505000C00002CE6
:102BC0000DD0237B9B2B05D128006169FFF7F4FF13
:102BD0006468F4E721002800FFF734FFF8E770BDD0
:102BE000036870B55B690D0000210400984700235D
:102BF000A84205D1034B20001968FFF7DDFF012330
:102C0000180070BDA00900200023016041608360AE
:102C100083857047F7B50400260001932C3635787C
:102C20001000032D12D827002D373A78002A0DD135
:102C3000626894466346AA00A218D360002900D1B6
:102C40006146019B0135D1613B703570606000F0D9
:102C5000BBFBA060F7BD030070B5002205002D335B
:102C60001A702C352B780400934203D183600068DE
:102C7000606070BD013BDBB22B7002339B00C31858
:102C80005868606000F0A0FBA060287806308000E3
:102C900024186068EDE703001B684068C01A4342CF
:102CA0005841C0B27047002804D0037B9520984259
:102CB00080414042704730B5002503AC2478058040
:102CC0000173AC4201D080210180002A00D08260D3
:102CD0004360422302881343038030BD03881022DF
:102CE00010B51C009443002901D01A43140002229D
:102CF00022430280027BC72A05D9002903D1DB06C3
:102D000001D500F0EFFC10BD03881A0702D59B0522
:102D10009B0D03800288024B134303807047C0461B
:102D200000FCFFFFF0B5150085B006000C00039312
:102D3000FFF7B9FFEBB2B7686419029300280BD014
:102D4000039B01225D1B30002300317C0095B847B6
:102D50002000FDF7B5F90AE033881B060CD5039B6C
:102D6000029A39009A1A2000D2B201F09FFA029B0F
:102D70001818C0B205B0F0BD039B390020005A1BE3
:102D800011F01CFFE4E710B50400FFF78CFF0028EA
:102D900001D0E08910BDA368988AFBE737B504002D
:102DA000FFF781FFA568002806D00023032220003A
:102DB000217C0093A84737BDED69002DFBD0200092
:102DC000FFF7E1FFA847F6E710B50400FFF76BFF38
:102DD000002801D0607C10BDA368188BFBE702239C
:102DE000028870B5134303800D000400FFF78CFFC9
:102DF000002D02D12000FFF7D1FF70BD37B50400D0
:102E0000FFF751FFA568002807D000230222200009
:102E1000217C0093A84780B23EBDE88AFCE7038886
:102E200010B51A000124A243002901D022001A4340
:102E300002231343038010BD70B515000C00826897
:102E40009B00116A20002A00595811F0B7FE002398
:102E50006419013C237070BD10B512F093FE00217F
:102E6000041CFDF737FB002802D180231B06E41861
:102E7000201C14F0E1FE034B034AFDF7DDFA431E6C
:102E8000984110BDF2D77A3E48AFBC9A83682020A3
:102E9000185E70478368588C7047000010B5FFF7C4
:102EA000F9FF03000120834209D9FA208000834200
:102EB00006D8642B03D864200A2B00D85A3810BDDA
:102EC0000048FCE7102700000023F7B50E000400BF
:102ED00003600800FFF7DAFFF7893F183000FFF7BB
:102EE000D9FF7F21E378FA0FD2010B401343E3703F
:102EF000FB170500F818584023880193012D07DCC3
:102F00004004DB0B400CDB03184320802000FEBD97
:102F100029B2FDF78FF9019A4004430CD00BC0038E
:102F2000184320803000FFF7B9FF29000600380061
:102F3000FDF766FACB17CF18300029005F40FDF788
:102F400079F978432368034F80B2C0031F403843A8
:102F50002060DBE7FF7F008037B50400010001A897
:102F6000FFF7B2FF2000FFF799FF019B0500580013
:102F7000000C13F039F8041C280013F035F8011C7C
:102F8000201C12F011FB6B46DA79041C9B887F2A07
:102F90000AD95804400C13F027F880231B06C018E8
:102FA000211C12F0EFFD3EBD5B04580C13F01CF821
:102FB000211C12F05BF9F6E710B5FFF76BFF02007A
:102FC0000020012A0CD9FA2304309B009A4207D82A
:102FD0000138642A04D807309042804140420130D1
:102FE00010BD70B50C00038881681B061600200018
:102FF0002431DD0F002B02DA01F058F970BDA4195D
:10300000013C11F0DBFD2570F8E7F0B585B00C0050
:1030100006001500FFF7D0FF3100070003A8FFF7F7
:1030200053FF002323706B46DB7B7F2B04D92A00E0
:103030002D21200001F06CF86B4699890522490486
:1030400000232000490C009501F0D9F8002F0DD085
:1030500001222E21200001F05BF8039B3A00590069
:1030600020003023090C009501F0C9F82000FDF77D
:1030700027F8C2B2954206D9C1B2AA1A3000D2B21C
:103080006118FFF7AEFF05B0F0BD83680133D87F4C
:10309000704770B50D1C04000169281C1600FFF76D
:1030A000DBFE002804D1310020002561FFF797FEE8
:1030B00070BD82680388108B1B0600D500B2704774
:1030C00070B5C38904000D0016008B4208D0FFF7CD
:1030D0007BFEA84204D331002000E581FFF77FFE8C
:1030E00070BDF7B50D000400FFF7D8FE0190200079
:1030F000FFF7D0FE2B680100070001985E00FDF786
:1031000099F8360C01003000FDF794F80300288888
:10311000EA784004400C78431D187F2A01D94042C8
:10312000C51A2000FFF7B2FE291A0022200089B23A
:10313000FFF7C6FFF7BD0000F7B50C1C0500002126
:10314000201CFDF7B3F9061E09D00021201CFDF755
:10315000C1F90126002802D180231B06E418201C97
:1031600011F082FF4004470C380012F03DFF011CB3
:10317000201C12F007FD041C2800FFF78FFE12F040
:1031800033FF211C12F0D8FB11F06EFFC30305487A
:10319000F60703403B433343280001A90193FFF79F
:1031A000A0FFF7BD0080FF7FF7B500270F70037BFE
:1031B00004000E001500022B03D1C389FFF73CFE6B
:1031C000F7BD032B19D1FFF760FFE389012806D073
:1031D00002280DD02549002B05D1254903E02549BA
:1031E000002B00D124493000EAB201F05FF8E7E794
:1031F0002249002BF7D12249F5E7652B08D1FFF7CB
:1032000058FF2B0002002169300001F008F8D7E7D1
:10321000012B03D1D2B2FFF7F8FED1E7662B01D024
:103220009B2B0AD12A0030003E2100F071FF2A00BA
:103230003E21300000F06CFFC2E7982B07D10388D5
:10324000DB07BDD530000F4911F0B8FCB8E79C2B67
:10325000B6D0FFF728FD0028B2D0009533003A0021
:103260002000217CA568A847AAE7C046C7910108AD
:10327000CC910108BC910108BF910108C3910108DC
:10328000B9910108B4910108F8B51F0015001300A9
:10329000002206000C00FFF745FD002F04D02A0095
:1032A0003900200000F034FF2A002021200000F027
:1032B0002FFF2000FCF704FF2A1A21183000FFF727
:1032C00073FFF8BD008870470CC90CC07047F0B59B
:1032D0000F001D000400002685B001900292002C12
:1032E00011D02000FFF74FFD03903800FFF74BFD92
:1032F000039B834200D1029E237B9B2B06D0002D93
:103300000FD1002E0FD0300005B0F0BD2B003900DA
:10331000019A6069FFF7DBFF0028F0D00600002D5E
:10332000F1D02000A8476468D9E70000054A10B52D
:103330000B00041E106800D1040002002100FFF7FA
:10334000C6FF10BDA0090020064B01001B6810B588
:10335000002B02D05A7A101E03D01A681800126A85
:10336000904710BD7C090020074B01001B6810B579
:10337000002B02D0587A002804D01A681800546A2A
:103380000022A04710BDC0467C090020F8B504000B
:1033900016000D00002C14D03000FFF7F4FC0700DD
:1033A0002000FFF7F0FC87420CD0237B9B2B06D13B
:1033B000320021006069FFF7E9FF051E02D1646851
:1033C000E8E725002800F8BD10B5002805D0034B1C
:1033D000020000211868FFF7D9FF10BDA0090020E6
:1033E00007B5054B02220193044B102100930448BA
:1033F000082303F049FE07BDC9320008C5320008A2
:103400008009002010B5024803F055FE10BDC046EB
:1034100080090020024B1888421C1A807047C04661
:1034200020000020F0B516000022040085B01D0029
:103430000AAB1B7803930BAB1F780C9B0092FFF732
:103440003AFC2000039BE6816774A560237405B0F5
:10345000F0BD0B0010B50174817C97220139C91AA7
:103460004B42594104000273C9B2FFF7D8FC200057
:1034700010BD9723037368330374704710B5817CC4
:1034800004004B425941C9B2FFF7C9FC982323738A
:1034900067332000237410BD4369417C10B55A186E
:1034A0000023013A1370DAB2914204D942695C1CDC
:1034B000D25C002A06D10022994205DD4469E2541B
:1034C0000133F9E72300EEE710BDF7B50192477C21
:1034D000466904003A0030000D0011F05DFB002841
:1034E00014D03A002900300011F068FB2000FFF7EB
:1034F000D3FF02232288200013432380FFF704FC1C
:10350000019B002B02D12000FFF748FCF7BD10B54E
:10351000437C0400013B002099420CDA63692000DF
:103520005A54FFF7B9FF0223228820001343238057
:10353000FFF7EAFB012010BD010010B51800012AB9
:1035400005D0022A14D0002A10D0002010BD0B7B19
:103550009B2B08D18969002905D0029BDAB200F0C3
:10356000A5FE0120F2E700230370FAE71A70F8E7DE
:1035700001204042EAE70000031E08D00020044A70
:10358000815C01308B4202D05E28F9D10020704767
:10359000D2910108F7B51D00037B04000020C82B61
:1035A00011D1062A40D81000FCF79CFD04513E3E84
:1035B0004035560000260139CBB22E700193637C52
:1035C000B34201DC0120FEBD63699F5D019BB342F4
:1035D0000FD139002800089A00F09AFD019B0421C0
:1035E000019A2148013300F07BFD002FEAD001361B
:1035F000E5E7002F09D0237E002B00D02A273900D1
:103600002800089A00F084FDF1E739002800089AA4
:1036100000F07EFDD6E75E200229D4D963695918EF
:1036200002390B78002BCED10020CCE72A78013963
:10363000C9B2002A03D12000FFF769FFC2E70B4B94
:1036400020009B18013B1A78FFF761FFBBE7002DB4
:10365000B8D000232B70B5E7636959180139087891
:10366000FFF78AFFAFE7C046A0090020D29101080A
:10367000F0B5002504001E00170085B02A000A9B43
:1036800003910095C821FFF716FB039B3000A36050
:10369000E781667425740CF001FF32002900606137
:1036A00011F06BF92000257605B0F0BD10B50121B1
:1036B0000400FFF713FB0023607C237410BD37B5B3
:1036C000037C02885B180374022313430380040005
:1036D000FFF71AFB0023A56805222000217C009338
:1036E000A8473EBDFF2337B5040000210374FFF750
:1036F000F5FA02232288200013432380FFF704FBFE
:103700000023A56803222000217C0093A84737BD31
:1037100010B5027C437C9A4203D3FFF7E3FF0020FD
:1037200010BD0121FFF7CBFFFAE730B585B06B463E
:103730001973091259730223017C0093856803AB46
:1037400004220400A84705006B1E9D41EDB200282D
:1037500003D000212000FFF742FB280005B030BD58
:1037600070B504001500002911DB437C8B420EDD8F
:10377000037C8B420BD00223028801741343038025
:10378000FFF7C2FA002D02D12000FFF707FB70BD42
:1037900013B514000122022C13D0032C08D094423C
:1037A00008D1049A1800D2B2074900F07FFD220028
:1037B000100016BD049A00922200FFF7EBFE0200F3
:1037C000F6E75242F4E7C0464E92010813B51400E2
:1037D0000122022C13D0032C08D0944208D1049A61
:1037E0001800D2B2074900F061FD2200100016BD9A
:1037F000049A00922200FFF79FFE0200F6E7524271
:10380000F4E7C046579201087FB506001000327BEE
:103810000D000024992A08D1032806D8FCF762FC81
:1038200002084B1100221A700124200004B070BD60
:103830002249002D00D122491800089A11F0BEF942
:10384000F2E7204D71692800002931D000F0BAF963
:103850000300006E996A026892689047041E07D0C0
:10386000002371691A002800496900F096FADBE725
:103870000100280000F070FA686B03689B689847A5
:103880000500230003220421FEF774FD220069468F
:103890000F237069FFF746FA2300280022000A4927
:1038A000FEF770FC2B68694628009B689847BBE7C9
:1038B00000F052FAB8E701246442B6E738920108F2
:1038C00031920108A009002040920108F0B50500DE
:1038D00087B0040001270591FFF79CFD00231435F4
:1038E00002009821029500932000174B0197FFF7E3
:1038F00099FDFFF78FFD2100303102001023049164
:10390000009128001149FFF7B3FEFFF783FD104E29
:1039100034350200330099210498029501970097ED
:10392000FFF780FDFFF776FD00230200029300936E
:103930009921330028000197FFF774FD2000059BB3
:10394000236607B0F0BDC046CD37000891370008A8
:103950000938000870B50400416400213030FFF7D9
:103960005EFA0025200026002900E5654830FFF7B3
:1039700056FA143629002000FFF751FA30000122D0
:103980000849FFF7A2FD230001222C332900300053
:103990001A70FFF744FA30002900FFF79FF9200062
:1039A00070BDC046DAAC01080088704710B503222C
:1039B00010F0DAFF10BD10B504000021FFF72FFA58
:1039C00000212000FFF78AF910BD002804D0037BF6
:1039D000C7209842804140427047002313B5017CC4
:1039E000009306228468A04716BD0000F0B50C00C5
:1039F00085B002930AAB1F780BAB1E780CAB1B781B
:103A0000110044630393FFF7FFF800220C4DFF23DE
:103A100031000092280002F000FD31002800094A20
:103A200002F014FD039B3900074A0298009301231A
:103A300002F084FD236820001B68984705B0F0BDA4
:103A40009C0A0020D1400008813B000870B5144C4E
:103A500005006068037B972B05D1FFF7B5FC0028B4
:103A600001D0406970BD636B5B7A022B0FD12800D7
:103A7000FFF711F900280AD0606B0022036869681B
:103A8000DB699847002802D00021FFF7C8F90549F3
:103A90006068FFF74BFC0028E4D12068E2E7C046ED
:103AA000A0090020B7390008416810B50A000400D9
:103AB0000123002A04D01088184206D15268F8E782
:103AC000606B437A022B02D06268100010BD03685D
:103AD000DB699847021EF7D00388DB07F4D5F4E7CB
:103AE000F8B50500406B002203680C005B6898473E
:103AF000021E0AD12E6B002E14D0377B7B1E022BA8
:103B000004D83000A1B2FFF7DBFAF8BD3000FFF7B0
:103B10005CFF021E04D021003000FFF706FEF4E730
:103B20009A2F18D0114843681A7B972A18D0FFF7AC
:103B3000BBFF0021FFF773F9686B437A002BE4D0D9
:103B400003686968DB69E2B298470028DDD001218B
:103B5000FFF765F9D9E721003000FFF701FED4E750
:103B6000022219889C740A431A80CEE7A00900201B
:103B700010B501000148FFF7B3FF10BDA0090020F8
:103B800010B5FFF7F5FF10BD70B50400006B0D0018
:103B9000002808D00021FFF7A1F869426941206B95
:103BA000C9B2FFF73CF92563002D03D0012128009D
:103BB000FFF794F822000023783213700434A367CF
:103BC000E36770BD836B70B50400002B07D16420E0
:103BD0000CF060FC0500E16BFFF778FEA563A06BBD
:103BE00070BD000037B504003022002110F0C5FE82
:103BF00023000025200054336564A564E564256531
:103C00001D700B4B022201930A4B0A21009358307E
:103C1000042303F039FA230078331D70231DE56770
:103C20002000DD6725636563A563E56325643EBD0C
:103C3000AD390008A93900080300543044338342E9
:103C400003D01A68002A01D1196070470433F6E7DF
:103C500010B5006C1400FEF7C3FF002802D1002C41
:103C600000D0A04710BD70B50E1E0ED00500543018
:103C700004004435A54208D02868002803D0036812
:103C800031009B6898470435F4E770BD70B50400B7
:103C90000E000120002910D0250054344435A542DF
:103CA0000BD02B68002B06D0002804D01A683100F6
:103CB0001800526890470435F1E770BD084B37B5DE
:103CC0001C68002C0BD001255430037889B22000E9
:103CD000009502F037FA2900200002F05DFA37BDA6
:103CE0009C0A002070B5436B04005B7A0D00002B2A
:103CF0001BD0184E00213000FFF746FF2000FFF7D1
:103D0000A5FE73681A7B972A10D102211888002219
:103D1000014330001980597C9A74FFF7CFFF636B21
:103D20009A7D012A01D802229A7570BD002D00D11A
:103D3000656828000121FFF772F800216068FFF72D
:103D400013FB05006068FFF7FFFA691E0200200000
:103D5000E3E7C046A009002070B50400406B0D00E9
:103D600003689B689847002806D1002D0CD12000DD
:103D7000FEF771FF01000CE0606B03689B689847D9
:103D8000038D9B07F1D570BD21682000FEF73CFF35
:103D900000212000FFF7A6FFF5E7F8B50E0015009B
:103DA00004001F00FFF780FE3B00320001002000EE
:103DB000FEF730FF29002000FFF794FFF8BD0B88C5
:103DC00070B504000D009B0610D5C36B002B0DD001
:103DD000FFF7F8FE06002900FFF7BCFD32000123C3
:103DE000310014322000FFF7D8FF70BD002369694D
:103DF0001A00F7E7F7B504000E000025C36E009324
:103E0000009BAB420DD0A26DAB00D1183000D75A49
:103E10000191FEF7B8FF0135B842F1D1019B9878C6
:103E2000FEBD54342078FBE7F7B50400224E00298C
:103E30001CD0376B3800FFF7C8FD002816D03800BB
:103E4000FFF766FC051E11D03800FFF7C6FD3900EC
:103E500006002000FFF7CEFF0121009001911748D6
:103E60000021B3B2AAB202F086F9F7BD0021206B9F
:103E7000FEF734FF2000216BFFF7F5FE2300002141
:103E8000783321631970231DE1677068D967FFF7E4
:103E90006BFA05007068FFF757FA691E02002000F0
:103EA000FFF70CFF636B5A7A002ADED09A7D002A56
:103EB000DBD101329A75D8E7A00900209C0A0020C6
:103EC000F0B505000C0085B0002929D00B8801262B
:103ED0009B081F003740334222D10B7B0393013BE9
:103EE000B3421FD8FFF750FE039BB34201D1102607
:103EF000A6572000FEF768FF2B6B0400190028006E
:103F0000DF89FFF777FF2F4D002100903B0028004D
:103F10002200019602F02FF92868002100284DD1D7
:103F200005B0F0BD039B032B0CD1C98920004B4287
:103F300059413A0089B2FFF7C3F821002800FFF782
:103F400092FEEDE7039B9A2B13D1FFF71DFE200095
:103F5000FEF73AFF296B03902800247CFFF74AFF05
:103F6000230000903900039A1648019602F003F9E5
:103F7000D6E70800FFF729FD0028D1D0210028004E
:103F8000FFF702FE2000FFF791FB2000FFF7C0FBC8
:103F900003902000FFF721FD05002000FEF7F3FE4F
:103FA0006A46411E8841074C928939000090ABB2A5
:103FB0002000019602F0DFF83900206802F0ECF8EA
:103FC000AEE7C0469C0A002070B505000C00466BA9
:103FD000FFF75CFE00280CD0237B9B2B0AD169687D
:103FE0008C4202D02800FFF73EFE21002800FFF798
:103FF000E6FE70BD972B1BD11C4B5B689C4210D119
:10400000A17C002903D12800FFF7A6FEF1E70139C2
:104010002000FFF71EFAFEF7C1FE2000FFF729FA85
:10402000E7E7002321001A002800FFF7B6FEE0E7CB
:104030002000982B07D1FEF7B1FE00212000FEF7EB
:10404000EEFE0021DFE7FEF72FFC002803D0200062
:10405000FEF7A4FECDE721000448FFF731FFB37D52
:10406000002BC6D10133B375C3E7C046A0090020B9
:104070000A0070B50E00511E8A410400406B0021F9
:10408000036801325B689847051E0CD1206B002E37
:104090000FD0002808D0FFF798FC002804D0290092
:1040A0002000FFF71FFE70BD01212000FFF754FE26
:1040B000F9E7002804D001212000FFF7B5FEF2E760
:1040C0002000FFF7F1FC01002000FFF77DFFEAE789
:1040D00010B50248FFF7CCFF10BDC046A009002074
:1040E00010B504007834217004308267C36710BDB6
:1040F00010B50248FFF776FD10BDC046A0090020AC
:1041000010B5024802F0D7FF10BDC046F8090020E4
:10411000831E70B501249A180300241A1E78E5182E
:10412000002E03D0934201D00133F7E7197000232A
:10413000435570BD082803D8024B8000C058704713
:104140000148FCE76492010800CA9A3BF0B585B0CB
:1041500003930A9B0C00023B150002900193002977
:1041600004DA4C421A002D21FFF7D2FF290020006B
:10417000FCF746F928000C000A21FCF75BF8002345
:104180000500029A1F00D65C0133002E03D0019A6D
:104190009742F6DB0026029BDB190093092D19DDFF
:1041A000019B9F4216DA20002900FCF729F9009BA9
:1041B0003030C0B218700300303B5A1E93411E438A
:1041C000039B0C00002B11D0002E00D11800009B87
:1041D00018700DE020000A21FCF712F9009B303125
:1041E00019700023009A537005B0F0BD002E00D066
:1041F000013728000A21FCF71DF80500CBE773B54D
:10420000040010001E000D00FFF794FF069B020043
:104210002900009320003300FFF798FF73BDF0B52D
:104220000C1C85B005000021201C1E000392FCF729
:104230003DF9002838D080231B06E418012302939F
:10424000201C11F063FE070011F080FE011C201CF1
:1042500011F098FC041C0398FFF76CFF11F076FE38
:10426000211C11F069FB11F051FE029B0400002B90
:1042700004D032002D212800FFF74AFF0023390027
:10428000280009220096FFF7BAFF320028002E21ED
:10429000FFF73EFF6B4621001A7B28003023009673
:1042A000FFF7ADFF05B0F0BD0290C9E7F0B505001E
:1042B000FF20002384460C78013A67461F40D8B29D
:1042C000EE19002C05D00133974202DA3470CC5C31
:1042D000F3E700233370F0BD036870B504000D00F0
:1042E0009B6A1100984723682900A0809B6A2000E0
:1042F0009847E08070BD036810B59B6A040098473A
:10430000E08010BD436A70B50400002B06D1882000
:104310000CF0C0F80500FEF7B1F86562606A70BD88
:10432000007B022807D09A2805D0012805D1002952
:1043300002D0022000E0012070470020FCE70023AB
:1043400070B51A000C26456C86B0AB4214D0340010
:104350005C43016B01320C19A17949088A4208DAE1
:1043600014230022206801A9FEF7DCFC012006B01E
:1043700070BD0A000133E8E70020F8E70300F0B55C
:1043800089B0059169331B780400002B35D0436C4C
:10439000002B32D0026BD3791B071B0F052B2CD1BE
:1043A0009668856933890393F388049303006C331B
:1043B0001B880293002D20D0337BA9791A0952184B
:1043C00002998A1A02926A79002A02D1059A002A71
:1043D00011D000226A7122681B07926A1B0F170016
:1043E00004AAD3810299049B9181200000932A00A2
:1043F000039B07A9B847ED68DCE709B0F0BDF8B545
:104400006423060014004B439BB25D1C0533ADB220
:104410009FB230002900303002F0FCFE021E0BD0AB
:104420004368D803C00D01D19368D87D002C02D019
:1044300093689B7DC018F8BD0135ADB2BD42E8D18F
:104440000120F8E7F8B5002406000F002500BC4263
:1044500007DC210001223000FFF7D1FF01342D18C5
:10446000F5E72800F8BD10B5141E02D1012318008D
:1044700010BD00230529FAD01000FEF715FA02231B
:104480000028F4D1237B032BF0D1013BEFE70000A0
:10449000F0B504000F008BB003920025276565641A
:1044A000AF4200D1C9E03B7B972B00D1C5E0644B04
:1044B0001B689F4225D1230068331B78AB4220D074
:1044C000236820009B6B984703682A0029001B681B
:1044D000984702215B4A636D536113880B43138035
:1044E000437D099020001B0907921A07564BBE31E5
:1044F0001343089A30300A40134307A9089302F087
:104500005CFE3B7B3D00982B1AD1236820009B6BFF
:1045100098470368002239001B689847C021437DF3
:10452000099020001B091A07474B30301343089AA3
:1045300007970A40134307A9089302F03EFE7D68DF
:10454000002D70D001222B889B09134229D02368AB
:1045500020009B6B9847036829009B6898472300BD
:104560003033061E02931ED0039B002B29D1C17944
:104570002A000907090F2000FFF775FF2368019043
:104580009B6B20009847036829001B68019A984795
:10459000736807950193099007A90298089302F0A0
:1045A0000CFE6D68CCE701906421019B0298594391
:1045B000013189B202F02EFE002805D0019B0133A3
:1045C00000E000230193EFE7230059331978280016
:1045D000FFF7A6FE236804909B6B200098470368B2
:1045E00006001B682A00049920000593FFF73BFF93
:1045F00029000200059B30009847FE21019B090419
:104600005B040B400921049E0B4306310E4031062A
:104610000B43C021427D0795120912071343089AE4
:104620000A401343B7E72000FFF789FE002804D0B3
:10463000039B002B01D103902FE70BB0F0BDC046C8
:10464000A0090020780A002009000005064B10B5DB
:104650005968036D8B4205D00223002201658375E2
:10466000FFF716FF10BDC046A009002010B50400DA
:10467000FFF7ECFF236D002B06D01A7B972A03D19E
:10468000587C0130C0B210BD606CFBE770B504000F
:10469000FFF7DCFF236D002B02D01A7B972A10D086
:1046A00000230C200125616C8B420ED002005A437E
:1046B000266BB218166836882E4204D090794008CE
:1046C00000E0987C70BD0133EEE70020FAE70000BF
:1046D00070B504001500FFF7B9FF206D002802D067
:1046E000037B972B04D0636C9D4202D3034B186865
:1046F00070BD0C225543236BE858F9E7A009002050
:10470000F0B500278BB003910500BC463900049337
:1047100093B202930697039B6A6C934200D38DE099
:104720000C2401225C432B6B1C19206803889E0912
:10473000324007920122164268D0A679D640B14293
:1047400003D0029A624492B202926268D103C90D08
:1047500001D1A268D17D029A51182A0058328FB235
:1047600011783A00002900D1029A29006E31098897
:10477000914263D3049A002A03D101215A080A42C4
:1047800039D00222934303800021354802F08AFB8E
:104790006B46267908229B5E7107490F0593012914
:1047A00038DD2B006C331888FBF744FDB3065B0F34
:1047B000013B43432A680138D66A08AA1380059B47
:1047C00053806368DB03DB0D01D1A368DB7D06AAA0
:1047D0009081D381049B21000093280009AB08AA93
:1047E000B047E3791B071B0F052B04D1A3795B08A6
:1047F00001D1079B06936368A179DA034908A3688E
:10480000D20D00D1DA7D9B7D9B189C46039B013322
:10481000039380E72B68059ADE6A0023089308ABB0
:104820005A802B006C331A886368DB03DB0D01D1DF
:10483000A368DB7D06A98A810A00CAE7049B002BD6
:104840000AD02B006E33791C1B8889B28B4203D9A6
:104850002B6828005B6B984706980BB0F0BDC046EC
:10486000E40A0020F0B55D4B8DB05D68036804007C
:104870009B6B98470368012229001B6898472368AF
:1048800006909B6B200098470368002229001B6854
:104890009847C37D01210593069B0600DB7D0493A9
:1048A000877D059B049AFF18069B28009B7D9B181B
:1048B0000893FEF7B4FA23006E331888049B089916
:1048C000013BC018C01BFBF7B5FC0023AA7C039377
:1048D000C3B20993039B0999D31A8B4204DD039B4E
:1048E0000133DBB20393F5E72800FEF7C7FD059B14
:1048F000727D19023A4B12090B4312071343C0226F
:10490000216E66660A40134323662368E065DB6A0E
:1049100008AA1E0023005C33079300230A93230098
:104920006C331B88200093811300059A0799DA8164
:1049300001230AAA00930BABB04700230593039B06
:10494000059A9E186B7CF6B2B34236D93100280026
:10495000FEF77FFDFE23092201361B0476041E406C
:10496000049BE0651B0213431E43C023226E08A96B
:1049700013401E43069B2666636623680AAADB6A09
:1049800020001E0000230A93230057806C331B88ED
:104990008B810B000499D9810123079900930BABFC
:1049A000B04700210F4802F07DFA089B099AFF18D2
:1049B000059B013305939342C1DD23683900200034
:1049C0005B6B98472800FEF754FD02222B88693460
:1049D00093432B80012323700DB0F0BDA00900206C
:1049E00009000005E40A0020F0B50400002589B0A4
:1049F000FFF72CFEA37D01210393236820001B6B8E
:104A0000A5759847039B022B08D123682900200035
:104A10001B6B984729005C4802F044FA2000FDF720
:104A200015FF5A4B5D682B7B972B22D12B889B0758
:104A3000DF0F002B02DB039B002B03D02000FFF7CE
:104A400011FF0127230068331B785A1E934122006F
:104A500069321370039B002B00D00127390020001E
:104A6000FFF78CFC2368022120001B6B984709B0DC
:104A7000F0BD676C002FEDD0236829001B6A200071
:104A800098472A0001002000FFF7DCFC23000122E8
:104A900058331B780026534022006E3212883500AE
:104AA0009B189BB20593039B87B25A1E9341DBB2BE
:104AB0000493230068331B78022B0CD131000122B0
:104AC0002000FFF79CFC059B86B29B1B9BB20593C5
:104AD000BF1BBFB20135059B9F4206D901222900A9
:104AE0002000FFF78CFC3F1AF3E7039B022B06D054
:104AF000237CAB4203D001230493DB1803932300F0
:104B0000257468331B780027022B0CD1049A216B83
:104B1000636CBA421CD1BB4232D00B681B889B0726
:104B2000DF0F002B18DB320029002000049BFFF769
:104B3000E7FD002800D00700230068331B78012B15
:104B40001CD16B425D412300EDB269331D7081E7DA
:104B50005A1E93415B421940236804AADF6A00236E
:104B6000069323006C331B8820009381049BD6811D
:104B7000009306AA07ABB8470127D4E79D1EE0E7DC
:104B8000049B1B68FFDEC046E40A0020A009002049
:104B900010B504008068FEF7A5FD0023A3606360E4
:104BA00010BD0000100010B5012902D101490FF01D
:104BB000EBFF10BDE0920108010070B51500040084
:104BC000383140681E00FDF7F8FB280006490FF059
:104BD000DBFF2800FBF774FA330002002900A0680D
:104BE000FEF7A0F870BDC046E59201080300F0B5DD
:104BF000040000250833D98F89B08068FEF795FD41
:104C000020226946A068FEF7CFFA2F006B46606845
:104C1000DA5DE9B24030002A12D0FEF778FCA368D2
:104C20006E1C1B7C013BBB4207D16068F1B27C2249
:104C300002354030FEF76BFC2E0035000137E5E70A
:104C4000FEF765FC09B0F0BD10B5024B1868FFF720
:104C5000CDFF10BD240A002073B50500012901D045
:104C6000012076BD8068FEF753FD0028F8D00024AF
:104C7000A884A8682300017C009406228668B047B7
:104C800081B2280022003830FEF71AFA2800FFF718
:104C9000ADFF2000E5E7002A06D0012902D16830E7
:104CA000008870476A30FBE7012901D16630F7E7D9
:104CB0006430F5E710B50400081E06D0FEF763F86F
:104CC00001002000443002F0A5FA10BD10B52430D8
:104CD00002F0A0FA10BD7FB504000D0016000029F7
:104CE0000BD00800FEF74FF844340100200002F01A
:104CF00091FA002802D0336843607FBD2800FEF798
:104D000042F802AB18803368200002A90193039394
:104D100002F053FAF1E7F0B58FB017006A46D3807E
:104D200014AB04CB0F251B78061D069316AB1B781E
:104D30003000039317AB1B780292049318AB1B78D7
:104D40000091079319AB1B78059302F063FA079B58
:104D5000069A2B402A401B01041E0692079319D085
:104D60000822390004300FF0FFFD029A637D2261B2
:104D70006A46D288AB43A281049AE275039AA2756F
:104D8000069A13431D40079B1D43059B65752375BC
:104D90000FB0F0BD6A46009BD288089308AB9A8199
:104DA000029B059A0C9308AB1A755B7D069AAB4380
:104DB00013431D40079B039A1D4308AB9A75049A41
:104DC0003900DA755D75082209A80FF0CDFD3000B5
:104DD00008A902F0F2F9DBE770B5836904000E0060
:104DE000150088B0002B17D1012106AA494220489E
:104DF0001180D18005A9538090800B700C21049301
:104E0000039100930A391B4B029101390191200053
:104E10001B881949FFF77FFF0434AD04002E0BD126
:104E200016492000294302F0F5F900281ED1200080
:104E3000114902F0EFF919E03000FDF7A4FF01007D
:104E40002000294302F0E6F900280FD10C4B9B68A3
:104E5000002B02D01800FDF796FF8021284349025D
:104E60000143200002F0D6F90028D9D008B070BD67
:104E700018C6FFFF04930108FFFF0400FFFF0000B6
:104E8000A0090020034B1B685A7A022A01D1002294
:104E90001A6570477C090020783070470088704799
:104EA0000CC90CC07047006870470088704702004A
:104EB000642380794008434310798006400FC0186E
:104EC000704710B51CC91CC010BD03000122D806D4
:104ED00003D418001040134205D004239943983995
:104EE0004B1E9941C8B2704710B588421ED00F249E
:104EF0000B68427D03608B89A24383810B69043078
:104F0000C3600B7D043103744B7C23401A4342740D
:104F10004A7C437C120912012340134343748B7C67
:104F200008228374CB7CC3740FF01EFD10BD884231
:104F30000FD00B88038004228B5E838006228B5E59
:104F4000C3800B7A03724B7A4372CB68C3600B69E0
:104F50000361704737B5002504000195069D086878
:104F60000095056B2000A84720003EBD73B50E00DC
:104F7000190006AB14001A88030005000120E8336D
:104F80001870686FFFF7A8F96946686FA27903681F
:104F90009D69E3798A80CB8000236371237922683D
:104FA0009B0031009B5801AAA84773BD73B505004B
:104FB0000C1E04D0013CE3B2012B13D973BD0122B6
:104FC0007830FFF709FFC188686FFFF794F9686FC1
:104FD0006946036801AADE69EB6E00940193012320
:104FE000B047EBE763425C41406FE83503682A78DD
:104FF000DB6AE1B2984700232B70DFE7F7B50600C4
:105000006E36338804000D008B421BDD0E4B0122EF
:1050100059687830FFF7E0FEC188606FFFF76BF9E1
:10502000606F6A4603686C34DF69002300936B4647
:105030005D80318823884D1B9380D580012369468C
:1050400001AAB847F7BDC046A0090020F0B504008A
:1050500085B0170002221E00FDF7B6FB2000314B81
:1050600002222360304B0A21E360304B3030019341
:105070002F4B002500930C2302F006F82D4B8022C5
:10508000E366230052005833256567651A80236E56
:10509000403A1A4009231343236602222300FF32B9
:1050A0006833E56565661A809D70234B20001A0001
:1050B0004C33E360214B0832A367214B22600193FC
:1050C000204B0122009305211823266766677C3058
:1050D00001F0DAFF20001C4B012201931B4B06213B
:1050E00000939C30142301F0CFFF2000184B0222C4
:1050F0000193184B0A210093BC30082301F0C4FF30
:105100002300154ADC33216F1A60144A1D725A605D
:105110001D730B6803A89B6898472000039BE366F8
:1051200005B0F0BD90920108D4920108C34E00086A
:10513000AF4E0008010001003893010810930108E8
:10514000E94E0008A74E00082F4F0008AB4E00089C
:10515000A14E00089D4E000800003F03FFFF000025
:10516000F0B5060089B0100015001C000F00FAF71A
:10517000A7FF002303AA844209DA0E998C4206DABB
:10518000132B04D0295D0134D1540133F3E70021FE
:1051900002ACD154200001230092716F3A00FFF756
:1051A000D9FE0023E05E09B0F0BD0000F0B58E68C6
:1051B000CF7997B0357B07933B0903932B071B0FE0
:1051C0000F680A932B09757B08932B093D8804000F
:1051D00006912800397B04920B93FFF776FE002896
:1051E0005AD02300DC331B88ED060593EB0F09939F
:1051F000002D00DB82E0944B1A6B002A7ED07833BE
:105200001A781300591E8B410399DBB2002979D01B
:10521000002A78D10823039A03991A4019424ED0E4
:105220000B005B0745D50023202238000EA9FEF7AE
:105230002BF80323039A616F1A40022A45D1079B7A
:105240000EAA0027DF5F737D00921B071B0F3269D8
:105250000DA8FFF77FFE0AAB0C255D5F089BED18DC
:105260007D1B606F0599FFF746F8606F0DA9036815
:105270001C69049B00229B5E5D19049B02229B5EBD
:105280000A9A9B180AAAD381737D95810EAA1B07DF
:10529000009232691B0FD4E0B388A5E7606F6168A4
:1052A000737D02681B0700911469290032691B0F86
:1052B000C7E0202238000EA9FDF776FFB9E72023CA
:1052C00038000EA9FDF72EFDB3E70B9D032AC8D1C8
:1052D000079B0EAA00255D5F737D00921B07326954
:1052E0001B0F0DA8FFF736FE0AAB0C229B5EEB1AD4
:1052F000DD0FED18089B6D10ED18B2E7039B002B36
:1053000088D1039B0993049B0CAD00229A5E0B9BF2
:105310003800D218049B02215B5E0A992A805B1830
:105320006B800022237A6168FDF7FCFC0599606FB1
:10533000FEF7E1FF606F737D616802681B070091F3
:105340001769290032691B0FB847069B227A186833
:105350006168FDF729FF049B62681B880EAF039309
:10536000079B38001B880693737D00921B073269E8
:105370001B0F616FFFF7EEFD3B88039AD71A069B60
:10538000DF19089BFF1A099B2F80002B86D0230072
:10539000E0331988606FFEF7AEFF2B4F2000FB6FE4
:1053A0000093626800233169FFF7DAFE3B1DDB6F73
:1053B00003900093FB6F626820003169FFF7D0FE15
:1053C00022006C32178884460022A85E039A063FAA
:1053D0008218974200DD1700606F0268D569049A51
:1053E0000221525E07990223C95E63465218013AB0
:1053F0000DA90F804A80062B00DA06230AAA138221
:1054000001230DA9538200230EAAA8470599606FB6
:10541000FEF771FF65682800FAF752FE0A4B043365
:10542000DB6F834204D90AAB1B890AAA063B1381AE
:10543000606F737D0268009514691B0732691B0F4A
:105440000CA9A04717B0F0BDA0090020F0B51F00BF
:105450001B7887B0019018071400820F94469A07B2
:105460000D00920F624507D199098A4204D199062D
:10547000890F914200D173E00C22134200D08FE0DB
:105480003B783F221900914321D0019A9B09506F2C
:105490000268D269944600216A5E0026A15F521814
:1054A0000226A95FD21A04AE718032800221625EA8
:1054B000B380F2803100012305AA6646B0473B78ED
:1054C0002A889B09D21A2A802288D31A2380302264
:1054D0003B78134226D0019A9B06506F9B0F0268BF
:1054E000D26902920022A95E0226AA5F03920222DA
:1054F000A65E039AB446624404AED21A318072802A
:105500000021625EF380B2803100012305AA029E71
:10551000B0473B786A889B069B0FD21A6A806288E4
:10552000D31A63803B789A0718D0019A9B07506F73
:105530009B0F0268D6692A6804920021625E04A962
:105540008A80CB8005AA0123B0473B786A889B06F6
:105550009B0FD21A6A806288D31A638007B0F0BDAD
:10556000002302933B78029A1B079B0F9342F5DDC1
:10557000019B2200586F29000368DB691E0000238D
:10558000B0472B8801332B806B8801336B802388D5
:10559000023B23806388023B6380029B0133E0E788
:1055A0006146019B586F0368DB691E002B680493FA
:1055B0000222A35E04AA9180D38004A9012305AA34
:1055C000B0473B782A881B079B0FD21A2A80228873
:1055D000D31A238054E7F0B58DB0009312AB80CB83
:1055E0008E681B7814000793737B06911B09039345
:1055F0000B6805001A88197B10000592FFF765FCFF
:105600000190002827D02B00DE331B8802932B004B
:10561000DC331B880493002C23D1F088029B2600E6
:10562000C01A43425841C3B20193059A0123D206DE
:1056300002D4059A1A4219D00299686FFEF75BFEF0
:10564000079B002B1CD103990223FA5E8E1909AB2C
:105650001E805A8016E0F38802937389261E0493F5
:10566000E3D00423E65E00230193DEE707990223DB
:10567000FA5E0BAB002958D103998E191E8056E0B3
:105680003B680993686F0099036809AADE690123E2
:10569000B047029A0499686FFEF71EFE002C2BD0CB
:1056A0000222BB5E0621625E686F9A1AD30F9B18B6
:1056B000009A5B100221525E9B1802689669009A5C
:1056C0000021525E0399521808A94B8163680A8130
:1056D0000B930BAAE3680AA9B047002C0CD0042254
:1056E000A35E039A00999B18009A9BB212889A189D
:1056F0000A803A88D31A3B80069B08AA9B681B7DC8
:10570000137319079A07890F920F8A421CD19909BE
:105710008A4219D19906890F914215D19B0713D15D
:10572000019B002B13D10DB0F0BD3988198002996F
:10573000686F5A80FEF7DFFD686F009903680BAA57
:10574000DE690123B047C8E7019B002B02D0552337
:1057500008AA13730499686FFEF7CDFD3A0028007C
:1057600000990BABFFF772FEDDE70000F0B50124F6
:105770008FB003938B6804911F7B5B7B05001B0933
:105780001E000B689C3019885F4B09092140C9181D
:10579000029201F03FFD039B020000932800029B50
:1057A00004990194FFF717FF2B006A331B783F0918
:1057B000002B00D19EE0049B1B681B88234203D171
:1057C0001B09234200D195E0039B0DAC02229A5E97
:1057D0004E4B511E02201B5ECB1AD80FC3185B1014
:1057E0000593029B00201B5E686F06937B1807934E
:1057F000039B0CAF00215B5E06995B1807995B1A4F
:105800000893B3180A93049B9B681A8909929B8892
:1058100011000B93FEF76FFD686F39000368DB69B9
:105820001E00029B02229B5E069A7B80039B3A80AD
:1058300002229B5E2200238063800123B047686FB1
:1058400039000368DB691E00029B02229B5E089AF6
:105850007B80039B3A8002229B5E22002380638030
:105860000123B047099A0B99686FFEF735FD05993A
:10587000686F8C46036821009B691E00029B022210
:105880009A5E059BD218069B628063441F4A238060
:105890001F4BB0470599686F8C46036821009B69D0
:1058A0001E00029B02229A5E059BD218089B628012
:1058B0006344164A2380174BB047029B00229B5E2D
:1058C0000A9A9B18029A0221525E3B80039B7A80BF
:1058D00000229A5E079B5B00D31A039A0221525E54
:1058E0002380628023003A0028000499FFF75EFCC1
:1058F0000FB0F0BD029B0CAA1B680C93039B1B68A6
:105900000D930DABF0E7C046FDFF0000280A002014
:105910002D00002022000020F0B51E000B680D00B5
:1059200019880123170009090E4A194085B004009F
:1059300089189C3001F06EFC012302002900200030
:10594000019300963B00FFF746FE3B682900029357
:1059500033682000039302AA03ABFFF727FC05B0CE
:10596000F0BDC046FDFF0000F0B5170001221E008B
:105970000B6889B002911988414B09091140C91877
:1059800004009C3001F046FC002301930E9B029919
:105990000200009320003300FFF71DFE029B380039
:1059A0009B6803930E9B00229A5E039B1B7B1B0943
:1059B000D31A0593FDF708FA0490059810F0C6FA7B
:1059C000051C049810F010FB011C281C0FF0ECFDC6
:1059D000051CF88910F008FB011C281C0FF0ACFF17
:1059E00010F094FA0122059B04901B1A05933B8842
:1059F000134202D11B0913423FD02300DE33198822
:105A0000606FFEF778FC606F07AD036806A9DB697D
:105A10001F00336806930E9B02229B5E049A6B80E4
:105A20002A8001232A00B847039B606F5989FEF73B
:105A300062FC606F0368DB691F000022B35E049A9A
:105A40009B180221725E04A90B810E9B4A810222DF
:105A50009B5E059A6B802A8006A92A000123B8471D
:105A60003368200006930E9B02991B6806AA0793D1
:105A70002B00FFF79BFB09B0F0BD039B1989BFE723
:105A8000FDFF0000F0B58DB0049301230E68019373
:105A9000049B170000931300002204000D00FFF781
:105AA0009AFD3000FDF76FF9010020009C3001F0F5
:105AB000B1FB0390002858D0AB6805930223FA5E2F
:105AC000059B1B7B1B071B0FD3180793049B00220E
:105AD0009B5E0421425E9A1AD30F9B1800217A5EC6
